{
  "contractName": "PlatformAccountProvider",
  "abi": [
    {
      "constant": true,
      "inputs": [],
      "name": "guardian",
      "outputs": [
        {
          "name": "",
          "type": "address"
        }
      ],
      "payable": false,
      "stateMutability": "view",
      "type": "function"
    },
    {
      "constant": true,
      "inputs": [
        {
          "name": "_signature",
          "type": "bytes"
        },
        {
          "name": "_message",
          "type": "bytes"
        }
      ],
      "name": "verifyGuardianSignature",
      "outputs": [
        {
          "name": "_device",
          "type": "address"
        }
      ],
      "payable": false,
      "stateMutability": "view",
      "type": "function"
    },
    {
      "inputs": [
        {
          "name": "_ens",
          "type": "address"
        },
        {
          "name": "_ensNode",
          "type": "bytes32"
        },
        {
          "name": "_guardian",
          "type": "address"
        },
        {
          "name": "_accountProxy",
          "type": "address"
        },
        {
          "name": "_contractCode",
          "type": "bytes"
        }
      ],
      "payable": false,
      "stateMutability": "nonpayable",
      "type": "constructor"
    },
    {
      "anonymous": false,
      "inputs": [
        {
          "indexed": true,
          "name": "node",
          "type": "bytes32"
        },
        {
          "indexed": false,
          "name": "addr",
          "type": "address"
        }
      ],
      "name": "AddrChanged",
      "type": "event"
    },
    {
      "anonymous": false,
      "inputs": [
        {
          "indexed": false,
          "name": "accountAddress",
          "type": "address"
        }
      ],
      "name": "AccountCreated",
      "type": "event"
    },
    {
      "constant": true,
      "inputs": [
        {
          "name": "_node",
          "type": "bytes32"
        }
      ],
      "name": "addr",
      "outputs": [
        {
          "name": "",
          "type": "address"
        }
      ],
      "payable": false,
      "stateMutability": "view",
      "type": "function"
    },
    {
      "constant": false,
      "inputs": [
        {
          "name": "_node",
          "type": "bytes32"
        },
        {
          "name": "_addr",
          "type": "address"
        }
      ],
      "name": "setAddr",
      "outputs": [],
      "payable": false,
      "stateMutability": "nonpayable",
      "type": "function"
    },
    {
      "constant": false,
      "inputs": [],
      "name": "releaseENSNode",
      "outputs": [],
      "payable": false,
      "stateMutability": "nonpayable",
      "type": "function"
    },
    {
      "constant": false,
      "inputs": [
        {
          "name": "_ensLabel",
          "type": "bytes32"
        },
        {
          "name": "_refundAmount",
          "type": "uint256"
        },
        {
          "name": "_deviceSignature",
          "type": "bytes"
        },
        {
          "name": "_guardianSignature",
          "type": "bytes"
        }
      ],
      "name": "createAccountWithGuardianSignature",
      "outputs": [],
      "payable": false,
      "stateMutability": "nonpayable",
      "type": "function"
    },
    {
      "constant": false,
      "inputs": [
        {
          "name": "_ensLabel",
          "type": "bytes32"
        },
        {
          "name": "_refundAmount",
          "type": "uint256"
        },
        {
          "name": "_deviceSignature",
          "type": "bytes"
        }
      ],
      "name": "createAccount",
      "outputs": [],
      "payable": false,
      "stateMutability": "nonpayable",
      "type": "function"
    },
    {
      "constant": false,
      "inputs": [
        {
          "name": "_accountId",
          "type": "uint256"
        },
        {
          "name": "_device",
          "type": "address"
        },
        {
          "name": "_ensLabel",
          "type": "bytes32"
        },
        {
          "name": "_refundAmount",
          "type": "uint256"
        }
      ],
      "name": "unsafeCreateAccount",
      "outputs": [],
      "payable": false,
      "stateMutability": "nonpayable",
      "type": "function"
    }
  ],
  "bytecode": "0x60806040523480156200001157600080fd5b5060405162001fcf38038062001fcf833981018060405260a08110156200003757600080fd5b810190808051906020019092919080519060200190929190805190602001909291908051906020019092919080516401000000008111156200007857600080fd5b828101905060208101848111156200008f57600080fd5b8151856001820283011164010000000082111715620000ad57600080fd5b505092919050505082818060019080519060200190620000cf929190620001b5565b5080805190602001206002819055505080600360006101000a81548173ffffffffffffffffffffffffffffffffffffffff021916908373ffffffffffffffffffffffffffffffffffffffff1602179055505084600460006101000a81548173ffffffffffffffffffffffffffffffffffffffff021916908373ffffffffffffffffffffffffffffffffffffffff1602179055508360068190555081600760006101000a81548173ffffffffffffffffffffffffffffffffffffffff021916908373ffffffffffffffffffffffffffffffffffffffff160217905550505050505062000264565b828054600181600116156101000203166002900490600052602060002090601f016020900481019282601f10620001f857805160ff191683800117855562000229565b8280016001018555821562000229579182015b82811115620002285782518255916020019190600101906200020b565b5b5090506200023891906200023c565b5090565b6200026191905b808211156200025d57600081600090555060010162000243565b5090565b90565b611d5b80620002746000396000f3fe60806040526004361061008e576000357c0100000000000000000000000000000000000000000000000000000000900463ffffffff1680630ed641b2146100935780631ab229831461016f5780633b3b57de146102e2578063452a93201461035d57806357cfcef5146103b45780636e9f344e14610553578063cb8cf15e1461056a578063d5fa2b00146105d9575b600080fd5b34801561009f57600080fd5b5061016d600480360360608110156100b657600080fd5b810190808035906020019092919080359060200190929190803590602001906401000000008111156100e757600080fd5b8201836020820111156100f957600080fd5b8035906020019184600183028401116401000000008311171561011b57600080fd5b91908080601f016020809104026020016040519081016040528093929190818152602001838380828437600081840152601f19601f820116905080830192505050505050509192919290505050610634565b005b34801561017b57600080fd5b506102e06004803603608081101561019257600080fd5b810190808035906020019092919080359060200190929190803590602001906401000000008111156101c357600080fd5b8201836020820111156101d557600080fd5b803590602001918460018302840111640100000000831117156101f757600080fd5b91908080601f016020809104026020016040519081016040528093929190818152602001838380828437600081840152601f19601f8201169050808301925050505050505091929192908035906020019064010000000081111561025a57600080fd5b82018360208201111561026c57600080fd5b8035906020019184600183028401116401000000008311171561028e57600080fd5b91908080601f016020809104026020016040519081016040528093929190818152602001838380828437600081840152601f19601f82011690508083019250505050505050919291929050505061098f565b005b3480156102ee57600080fd5b5061031b6004803603602081101561030557600080fd5b8101908080359060200190929190505050610b0e565b604051808273ffffffffffffffffffffffffffffffffffffffff1673ffffffffffffffffffffffffffffffffffffffff16815260200191505060405180910390f35b34801561036957600080fd5b50610372610b4b565b604051808273ffffffffffffffffffffffffffffffffffffffff1673ffffffffffffffffffffffffffffffffffffffff16815260200191505060405180910390f35b3480156103c057600080fd5b50610511600480360360408110156103d757600080fd5b81019080803590602001906401000000008111156103f457600080fd5b82018360208201111561040657600080fd5b8035906020019184600183028401116401000000008311171561042857600080fd5b91908080601f016020809104026020016040519081016040528093929190818152602001838380828437600081840152601f19601f8201169050808301925050505050505091929192908035906020019064010000000081111561048b57600080fd5b82018360208201111561049d57600080fd5b803590602001918460018302840111640100000000831117156104bf57600080fd5b91908080601f016020809104026020016040519081016040528093929190818152602001838380828437600081840152601f19601f820116905080830192505050505050509192919290505050610b71565b604051808273ffffffffffffffffffffffffffffffffffffffff1673ffffffffffffffffffffffffffffffffffffffff16815260200191505060405180910390f35b34801561055f57600080fd5b50610568610d6e565b005b34801561057657600080fd5b506105d76004803603608081101561058d57600080fd5b8101908080359060200190929190803573ffffffffffffffffffffffffffffffffffffffff1690602001909291908035906020019092919080359060200190929190505050611037565b005b3480156105e557600080fd5b50610632600480360360408110156105fc57600080fd5b8101908080359060200190929190803573ffffffffffffffffffffffffffffffffffffffff1690602001909291905050506112c6565b005b3373ffffffffffffffffffffffffffffffffffffffff16600360009054906101000a900473ffffffffffffffffffffffffffffffffffffffff1673ffffffffffffffffffffffffffffffffffffffff1614806107825750600360009054906101000a900473ffffffffffffffffffffffffffffffffffffffff1673ffffffffffffffffffffffffffffffffffffffff166384666015336040518263ffffffff167c0100000000000000000000000000000000000000000000000000000000028152600401808273ffffffffffffffffffffffffffffffffffffffff1673ffffffffffffffffffffffffffffffffffffffff16815260200191505060206040518083038186803b15801561074657600080fd5b505afa15801561075a573d6000803e3d6000fd5b505050506040513d602081101561077057600080fd5b81019080805190602001909291905050505b151561081c576040517f08c379a00000000000000000000000000000000000000000000000000000000081526004018080602001828103825260238152602001807f6d73672e73656e646572206973206e6f74206120677561726469616e2064657681526020017f696365000000000000000000000000000000000000000000000000000000000081525060400191505060405180910390fd5b600061091482610906306000357fffffffff00000000000000000000000000000000000000000000000000000000168888604051602001808573ffffffffffffffffffffffffffffffffffffffff1673ffffffffffffffffffffffffffffffffffffffff166c01000000000000000000000000028152601401847bffffffffffffffffffffffffffffffffffffffffffffffffffffffff19167bffffffffffffffffffffffffffffffffffffffffffffffffffffffff19168152600401838152602001828152602001945050505050604051602081830303815290604052805190602001206114ed565b61154590919063ffffffff16565b9050600081604051602001808273ffffffffffffffffffffffffffffffffffffffff1673ffffffffffffffffffffffffffffffffffffffff166c0100000000000000000000000002815260140191505060405160208183030381529060405280519060200120905061098881838787611629565b5050505050565b6000610a8783610a79306000357fffffffff00000000000000000000000000000000000000000000000000000000168989604051602001808573ffffffffffffffffffffffffffffffffffffffff1673ffffffffffffffffffffffffffffffffffffffff166c01000000000000000000000000028152601401847bffffffffffffffffffffffffffffffffffffffffffffffffffffffff19167bffffffffffffffffffffffffffffffffffffffffffffffffffffffff19168152600401838152602001828152602001945050505050604051602081830303815290604052805190602001206114ed565b61154590919063ffffffff16565b9050610a938284610b71565b50600081604051602001808273ffffffffffffffffffffffffffffffffffffffff1673ffffffffffffffffffffffffffffffffffffffff166c01000000000000000000000000028152601401915050604051602081830303815290604052805190602001209050610b0681838888611629565b505050505050565b60006005600083815260200190815260200160002060009054906101000a900473ffffffffffffffffffffffffffffffffffffffff169050919050565b600360009054906101000a900473ffffffffffffffffffffffffffffffffffffffff1681565b6000600360009054906101000a900473ffffffffffffffffffffffffffffffffffffffff1673ffffffffffffffffffffffffffffffffffffffff1673__AccountLibrary________________________63a4569a039091858560016040518563ffffffff167c0100000000000000000000000000000000000000000000000000000000028152600401808573ffffffffffffffffffffffffffffffffffffffff1673ffffffffffffffffffffffffffffffffffffffff168152602001806020018060200184151515158152602001838103835286818151815260200191508051906020019080838360005b83811015610c77578082015181840152602081019050610c5c565b50505050905090810190601f168015610ca45780820380516001836020036101000a031916815260200191505b50838103825285818151815260200191508051906020019080838360005b83811015610cdd578082015181840152602081019050610cc2565b50505050905090810190601f168015610d0a5780820380516001836020036101000a031916815260200191505b50965050505050505060206040518083038186803b158015610d2b57600080fd5b505af4158015610d3f573d6000803e3d6000fd5b505050506040513d6020811015610d5557600080fd5b8101908080519060200190929190505050905092915050565b3373ffffffffffffffffffffffffffffffffffffffff16600360009054906101000a900473ffffffffffffffffffffffffffffffffffffffff1673ffffffffffffffffffffffffffffffffffffffff161480610ebc5750600360009054906101000a900473ffffffffffffffffffffffffffffffffffffffff1673ffffffffffffffffffffffffffffffffffffffff166384666015336040518263ffffffff167c0100000000000000000000000000000000000000000000000000000000028152600401808273ffffffffffffffffffffffffffffffffffffffff1673ffffffffffffffffffffffffffffffffffffffff16815260200191505060206040518083038186803b158015610e8057600080fd5b505afa158015610e94573d6000803e3d6000fd5b505050506040513d6020811015610eaa57600080fd5b81019080805190602001909291905050505b1515610f56576040517f08c379a00000000000000000000000000000000000000000000000000000000081526004018080602001828103825260238152602001807f6d73672e73656e646572206973206e6f74206120677561726469616e2064657681526020017f696365000000000000000000000000000000000000000000000000000000000081525060400191505060405180910390fd5b600460009054906101000a900473ffffffffffffffffffffffffffffffffffffffff1673ffffffffffffffffffffffffffffffffffffffff16635b0fc9c3600654336040518363ffffffff167c0100000000000000000000000000000000000000000000000000000000028152600401808381526020018273ffffffffffffffffffffffffffffffffffffffff1673ffffffffffffffffffffffffffffffffffffffff16815260200192505050600060405180830381600087803b15801561101d57600080fd5b505af1158015611031573d6000803e3d6000fd5b50505050565b3373ffffffffffffffffffffffffffffffffffffffff16600360009054906101000a900473ffffffffffffffffffffffffffffffffffffffff1673ffffffffffffffffffffffffffffffffffffffff1614806111855750600360009054906101000a900473ffffffffffffffffffffffffffffffffffffffff1673ffffffffffffffffffffffffffffffffffffffff166384666015336040518263ffffffff167c0100000000000000000000000000000000000000000000000000000000028152600401808273ffffffffffffffffffffffffffffffffffffffff1673ffffffffffffffffffffffffffffffffffffffff16815260200191505060206040518083038186803b15801561114957600080fd5b505afa15801561115d573d6000803e3d6000fd5b505050506040513d602081101561117357600080fd5b81019080805190602001909291905050505b151561121f576040517f08c379a00000000000000000000000000000000000000000000000000000000081526004018080602001828103825260238152602001807f6d73672e73656e646572206973206e6f74206120677561726469616e2064657681526020017f696365000000000000000000000000000000000000000000000000000000000081525060400191505060405180910390fd5b600080357fffffffff00000000000000000000000000000000000000000000000000000000168560405160200180837bffffffffffffffffffffffffffffffffffffffffffffffffffffffff19167bffffffffffffffffffffffffffffffffffffffffffffffffffffffff19168152600401828152602001925050506040516020818303038152906040528051906020012090506112bf81858585611629565b5050505050565b813373ffffffffffffffffffffffffffffffffffffffff166000809054906101000a900473ffffffffffffffffffffffffffffffffffffffff1673ffffffffffffffffffffffffffffffffffffffff166302571be3836040518263ffffffff167c01000000000000000000000000000000000000000000000000000000000281526004018082815260200191505060206040518083038186803b15801561136c57600080fd5b505afa158015611380573d6000803e3d6000fd5b505050506040513d602081101561139657600080fd5b810190808051906020019092919050505073ffffffffffffffffffffffffffffffffffffffff16141515611432576040517f08c379a00000000000000000000000000000000000000000000000000000000081526004018080602001828103825260208152602001807f6d73672e73656e646572206973206e6f7420454e53206e6f6465206f776e657281525060200191505060405180910390fd5b816005600085815260200190815260200160002060006101000a81548173ffffffffffffffffffffffffffffffffffffffff021916908373ffffffffffffffffffffffffffffffffffffffff160217905550827f52d7d861f09ab3d26239d492e8968629f95e9e318cf0b73bfddc441522a15fd283604051808273ffffffffffffffffffffffffffffffffffffffff1673ffffffffffffffffffffffffffffffffffffffff16815260200191505060405180910390a2505050565b60008160405160200180807f19457468657265756d205369676e6564204d6573736167653a0a333200000000815250601c01828152602001915050604051602081830303815290604052805190602001209050919050565b600080600080604185511415156115625760009350505050611623565b6020850151925060408501519150606085015160001a9050601b8160ff16101561158d57601b810190505b601b8160ff16141580156115a55750601c8160ff1614155b156115b65760009350505050611623565b60018682858560405160008152602001604052604051808581526020018460ff1660ff1681526020018381526020018281526020019450505050506020604051602081039080840390855afa158015611613573d6000803e3d6000fd5b5050506020604051035193505050505b92915050565b6000600654836040516020018083815260200182815260200192505050604051602081830303815290604052805190602001209050600073ffffffffffffffffffffffffffffffffffffffff1661167f82610b0e565b73ffffffffffffffffffffffffffffffffffffffff1614151561170a576040517f08c379a00000000000000000000000000000000000000000000000000000000081526004018080602001828103825260178152602001807f656e73206c6162656c20616c72656164792074616b656e00000000000000000081525060200191505060405180910390fd5b600061171586611c6f565b905060008190506060600260405190808252806020026020018201604052801561174e5781602001602082028038833980820191505090505b509050600760009054906101000a900473ffffffffffffffffffffffffffffffffffffffff1681600081518110151561178357fe5b9060200190602002019073ffffffffffffffffffffffffffffffffffffffff16908173ffffffffffffffffffffffffffffffffffffffff1681525050868160018151811015156117cf57fe5b9060200190602002019073ffffffffffffffffffffffffffffffffffffffff16908173ffffffffffffffffffffffffffffffffffffffff16815250508173ffffffffffffffffffffffffffffffffffffffff166372483bf98287336040518463ffffffff167c010000000000000000000000000000000000000000000000000000000002815260040180806020018481526020018373ffffffffffffffffffffffffffffffffffffffff1673ffffffffffffffffffffffffffffffffffffffff168152602001828103825285818151815260200191508051906020019060200280838360005b838110156118d05780820151818401526020810190506118b5565b50505050905001945050505050600060405180830381600087803b1580156118f757600080fd5b505af115801561190b573d6000803e3d6000fd5b50505050600460009054906101000a900473ffffffffffffffffffffffffffffffffffffffff1673ffffffffffffffffffffffffffffffffffffffff166306ab592360065488306040518463ffffffff167c0100000000000000000000000000000000000000000000000000000000028152600401808481526020018381526020018273ffffffffffffffffffffffffffffffffffffffff1673ffffffffffffffffffffffffffffffffffffffff1681526020019350505050600060405180830381600087803b1580156119de57600080fd5b505af11580156119f2573d6000803e3d6000fd5b50505050600460009054906101000a900473ffffffffffffffffffffffffffffffffffffffff1673ffffffffffffffffffffffffffffffffffffffff16631896f70a85306040518363ffffffff167c0100000000000000000000000000000000000000000000000000000000028152600401808381526020018273ffffffffffffffffffffffffffffffffffffffff1673ffffffffffffffffffffffffffffffffffffffff16815260200192505050600060405180830381600087803b158015611abb57600080fd5b505af1158015611acf573d6000803e3d6000fd5b50505050600460009054906101000a900473ffffffffffffffffffffffffffffffffffffffff1673ffffffffffffffffffffffffffffffffffffffff16635b0fc9c385856040518363ffffffff167c0100000000000000000000000000000000000000000000000000000000028152600401808381526020018273ffffffffffffffffffffffffffffffffffffffff1673ffffffffffffffffffffffffffffffffffffffff16815260200192505050600060405180830381600087803b158015611b9857600080fd5b505af1158015611bac573d6000803e3d6000fd5b50505050826005600086815260200190815260200160002060006101000a81548173ffffffffffffffffffffffffffffffffffffffff021916908373ffffffffffffffffffffffffffffffffffffffff1602179055507f805996f252884581e2f74cf3d2b03564d5ec26ccc90850ae12653dc1b72d1fa283604051808273ffffffffffffffffffffffffffffffffffffffff1673ffffffffffffffffffffffffffffffffffffffff16815260200191505060405180910390a15050505050505050565b6000606060018054600181600116156101000203166002900480601f016020809104026020016040519081016040528092919081815260200182805460018160011615610100020316600290048015611d095780601f10611cde57610100808354040283529160200191611d09565b820191906000526020600020905b815481529060010190602001808311611cec57829003601f168201915b50505050509050828151602083016000f59150813b1515611d2957600080fd5b5091905056fea165627a7a723058205c8356a594ff68e7448866798ed9b8f242ab2293e19813cd53f21e3b3ad602f50029",
  "source": "pragma solidity ^0.5.0;\n\nimport \"@ensdomains/ens/contracts/ENS.sol\";\nimport \"openzeppelin-solidity/contracts/cryptography/ECDSA.sol\";\nimport \"../account/AbstractAccount.sol\";\nimport \"../contractCreator/ContractCreator.sol\";\nimport \"../ens/ENSOwnable.sol\";\nimport \"../guardian/Guarded.sol\";\nimport \"./AbstractPlatformAccount.sol\";\nimport \"./AbstractPlatformAccountProvider.sol\";\n\n\n/**\n * @title Platform Account Provider\n */\ncontract PlatformAccountProvider is ENSOwnable, ContractCreator, Guarded, AbstractPlatformAccountProvider {\n\n  using ECDSA for bytes32;\n\n  ENS private ens;\n\n  mapping(bytes32 => address) private ensResolverAddresses;\n\n  bytes32 private ensNode;\n\n  address accountProxy;\n\n  constructor(\n    address _ens,\n    bytes32 _ensNode,\n    address _guardian,\n    address _accountProxy,\n    bytes memory _contractCode\n  ) ContractCreator(_contractCode) Guarded(_guardian) public {\n    ens = ENS(_ens);\n    ensNode = _ensNode;\n    accountProxy = _accountProxy;\n  }\n\n  function addr(bytes32 _node) public view returns (address) {\n    return ensResolverAddresses[_node];\n  }\n\n  function setAddr(bytes32 _node, address _addr) public onlyENSNodeOwner(_node) {\n    ensResolverAddresses[_node] = _addr;\n    emit AddrChanged(_node, _addr);\n  }\n\n  function releaseENSNode() onlyGuardian public {\n    ens.setOwner(ensNode, msg.sender);\n  }\n\n  function createAccountWithGuardianSignature(\n    bytes32 _ensLabel,\n    uint256 _refundAmount,\n    bytes memory _deviceSignature,\n    bytes memory _guardianSignature\n  ) public {\n\n    address _device = keccak256(\n      abi.encodePacked(\n        address(this),\n        msg.sig,\n        _ensLabel,\n        _refundAmount\n      )\n    ).toEthSignedMessageHash().recover(_deviceSignature);\n\n    verifyGuardianSignature(\n      _guardianSignature,\n      _deviceSignature\n    );\n\n    bytes32 _salt = keccak256(abi.encodePacked(_device));\n\n    _createAccount(\n      _salt,\n      _device,\n      _ensLabel,\n      _refundAmount\n    );\n  }\n\n  function createAccount(\n    bytes32 _ensLabel,\n    uint256 _refundAmount,\n    bytes memory _deviceSignature\n  ) onlyGuardian public {\n\n    address _device = keccak256(\n      abi.encodePacked(\n        address(this),\n        msg.sig,\n        _ensLabel,\n        _refundAmount\n      )\n    ).toEthSignedMessageHash().recover(_deviceSignature);\n\n    bytes32 _salt = keccak256(abi.encodePacked(_device));\n\n    _createAccount(\n      _salt,\n      _device,\n      _ensLabel,\n      _refundAmount\n    );\n  }\n\n  function unsafeCreateAccount(\n    uint256 _accountId,\n    address _device,\n    bytes32 _ensLabel,\n    uint256 _refundAmount\n  ) onlyGuardian public {\n\n    bytes32 _salt = keccak256(\n      abi.encodePacked(\n        msg.sig,\n        _accountId\n      )\n    );\n\n    _createAccount(\n      _salt,\n      _device,\n      _ensLabel,\n      _refundAmount\n    );\n  }\n\n  function _createAccount(\n    bytes32 _salt,\n    address _device,\n    bytes32 _ensLabel,\n    uint256 _refundAmount\n  ) private {\n\n    bytes32 _accountEnsNode = keccak256(abi.encodePacked(ensNode, _ensLabel));\n\n    require(\n      addr(_accountEnsNode) == address(0),\n      \"ens label already taken\"\n    );\n\n    // create account\n    address _accountAddress = _createContract(_salt);\n\n    // initialize account\n    AbstractPlatformAccount _account = AbstractPlatformAccount(_accountAddress);\n    address[] memory _devices = new address[](2);\n    _devices[0] = accountProxy;\n    _devices[1] = _device;\n    _account.initialize(_devices, _refundAmount, msg.sender);\n\n    // setup ens name\n    ens.setSubnodeOwner(ensNode, _ensLabel, address(this));\n    ens.setResolver(_accountEnsNode, address(this));\n    ens.setOwner(_accountEnsNode, _accountAddress);\n\n    ensResolverAddresses[_accountEnsNode] = _accountAddress;\n\n    emit AccountCreated(_accountAddress);\n  }\n}\n",
  "sourcePath": "/Users/cwhinfrey/projects/ethereum/LevelK/archanova-mono/solidity/contracts/platform/PlatformAccountProvider.sol",
  "compiler": {
    "name": "solc",
    "version": "0.5.0+commit.1d4f565a.Emscripten.clang"
  },
  "schemaVersion": "3.0.1",
  "updatedAt": "2019-02-17T01:45:02.056Z",
  "devdoc": {
    "methods": {},
    "title": "Platform Account Provider"
  },
  "userdoc": {
    "methods": {}
  }
}