{
  "contractName": "Account",
  "abi": [
    {
      "inputs": [
        {
          "name": "_device",
          "type": "address"
        }
      ],
      "payable": false,
      "stateMutability": "nonpayable",
      "type": "constructor"
    },
    {
      "payable": true,
      "stateMutability": "payable",
      "type": "fallback"
    },
    {
      "anonymous": false,
      "inputs": [
        {
          "indexed": false,
          "name": "deviceAddress",
          "type": "address"
        },
        {
          "indexed": false,
          "name": "deviceAccessType",
          "type": "uint8"
        }
      ],
      "name": "DeviceAdded",
      "type": "event"
    },
    {
      "anonymous": false,
      "inputs": [
        {
          "indexed": false,
          "name": "deviceAddress",
          "type": "address"
        }
      ],
      "name": "DeviceRemoved",
      "type": "event"
    },
    {
      "anonymous": false,
      "inputs": [
        {
          "indexed": false,
          "name": "to",
          "type": "address"
        },
        {
          "indexed": false,
          "name": "value",
          "type": "uint256"
        },
        {
          "indexed": false,
          "name": "data",
          "type": "bytes"
        },
        {
          "indexed": false,
          "name": "response",
          "type": "bytes"
        }
      ],
      "name": "TransactionExecuted",
      "type": "event"
    },
    {
      "constant": true,
      "inputs": [
        {
          "name": "_device",
          "type": "address"
        }
      ],
      "name": "deviceExists",
      "outputs": [
        {
          "name": "",
          "type": "bool"
        }
      ],
      "payable": false,
      "stateMutability": "view",
      "type": "function"
    },
    {
      "constant": true,
      "inputs": [
        {
          "name": "_device",
          "type": "address"
        }
      ],
      "name": "deviceExisted",
      "outputs": [
        {
          "name": "",
          "type": "bool"
        }
      ],
      "payable": false,
      "stateMutability": "view",
      "type": "function"
    },
    {
      "constant": true,
      "inputs": [
        {
          "name": "_device",
          "type": "address"
        }
      ],
      "name": "getDeviceAccessType",
      "outputs": [
        {
          "name": "",
          "type": "uint8"
        }
      ],
      "payable": false,
      "stateMutability": "view",
      "type": "function"
    },
    {
      "constant": false,
      "inputs": [
        {
          "name": "_device",
          "type": "address"
        },
        {
          "name": "_accessType",
          "type": "uint8"
        }
      ],
      "name": "addDevice",
      "outputs": [],
      "payable": false,
      "stateMutability": "nonpayable",
      "type": "function"
    },
    {
      "constant": false,
      "inputs": [
        {
          "name": "_device",
          "type": "address"
        }
      ],
      "name": "removeDevice",
      "outputs": [],
      "payable": false,
      "stateMutability": "nonpayable",
      "type": "function"
    },
    {
      "constant": false,
      "inputs": [
        {
          "name": "_to",
          "type": "address"
        },
        {
          "name": "_value",
          "type": "uint256"
        },
        {
          "name": "_data",
          "type": "bytes"
        }
      ],
      "name": "executeTransaction",
      "outputs": [
        {
          "name": "_response",
          "type": "bytes"
        }
      ],
      "payable": false,
      "stateMutability": "nonpayable",
      "type": "function"
    }
  ],
  "bytecode": "0x608060405234801561001057600080fd5b50604051602080610f968339810180604052602081101561003057600080fd5b8101908080519060200190929190505050600073ffffffffffffffffffffffffffffffffffffffff168173ffffffffffffffffffffffffffffffffffffffff1614151561012f5760016000808373ffffffffffffffffffffffffffffffffffffffff1673ffffffffffffffffffffffffffffffffffffffff16815260200190815260200160002060006101000a81548160ff021916908360028111156100d257fe5b021790555060018060008373ffffffffffffffffffffffffffffffffffffffff1673ffffffffffffffffffffffffffffffffffffffff16815260200190815260200160002060006101000a81548160ff0219169083151502179055505b50610e578061013f6000396000f3fe608060405260043610610078576000357c0100000000000000000000000000000000000000000000000000000000900463ffffffff1680631f7b63241461007a5780633f579f42146100cb5780636193db8e14610236578063846660151461029f578063bbb66fbe14610308578063e83558341461037b575b005b34801561008657600080fd5b506100c96004803603602081101561009d57600080fd5b81019080803573ffffffffffffffffffffffffffffffffffffffff1690602001909291905050506103d9565b005b3480156100d757600080fd5b506101bb600480360360608110156100ee57600080fd5b81019080803573ffffffffffffffffffffffffffffffffffffffff169060200190929190803590602001909291908035906020019064010000000081111561013557600080fd5b82018360208201111561014757600080fd5b8035906020019184600183028401116401000000008311171561016957600080fd5b91908080601f016020809104026020016040519081016040528093929190818152602001838380828437600081840152601f19601f8201169050808301925050505050505091929192905050506105a0565b6040518080602001828103825283818151815260200191508051906020019080838360005b838110156101fb5780820151818401526020810190506101e0565b50505050905090810190601f1680156102285780820380516001836020036101000a031916815260200191505b509250505060405180910390f35b34801561024257600080fd5b506102856004803603602081101561025957600080fd5b81019080803573ffffffffffffffffffffffffffffffffffffffff169060200190929190505050610997565b604051808215151515815260200191505060405180910390f35b3480156102ab57600080fd5b506102ee600480360360208110156102c257600080fd5b81019080803573ffffffffffffffffffffffffffffffffffffffff1690602001909291905050506109ed565b604051808215151515815260200191505060405180910390f35b34801561031457600080fd5b506103576004803603602081101561032b57600080fd5b81019080803573ffffffffffffffffffffffffffffffffffffffff169060200190929190505050610a5b565b6040518082600281111561036757fe5b60ff16815260200191505060405180910390f35b34801561038757600080fd5b506103d76004803603604081101561039e57600080fd5b81019080803573ffffffffffffffffffffffffffffffffffffffff169060200190929190803560ff169060200190929190505050610ab0565b005b600160028111156103e657fe5b6103ef33610a5b565b60028111156103fa57fe5b14151561046f576040517f08c379a00000000000000000000000000000000000000000000000000000000081526004018080602001828103825260178152602001807f6d73672e73656e646572206973206e6f74206f776e657200000000000000000081525060200191505060405180910390fd5b610478816109ed565b15156104ec576040517f08c379a00000000000000000000000000000000000000000000000000000000081526004018080602001828103825260158152602001807f64657669636520646f65736e277420657869737473000000000000000000000081525060200191505060405180910390fd5b6000808273ffffffffffffffffffffffffffffffffffffffff1673ffffffffffffffffffffffffffffffffffffffff16815260200190815260200160002060006101000a81549060ff02191690557f15c62ec158a6c18af42b447791266b9b0764ba2a6df610890d4da85c3d4185db81604051808273ffffffffffffffffffffffffffffffffffffffff1673ffffffffffffffffffffffffffffffffffffffff16815260200191505060405180910390a150565b6060600160028111156105af57fe5b6105b833610a5b565b60028111156105c357fe5b141515610638576040517f08c379a00000000000000000000000000000000000000000000000000000000081526004018080602001828103825260178152602001807f6d73672e73656e646572206973206e6f74206f776e657200000000000000000081525060200191505060405180910390fd5b600073ffffffffffffffffffffffffffffffffffffffff168473ffffffffffffffffffffffffffffffffffffffff16141580156106a157503073ffffffffffffffffffffffffffffffffffffffff168473ffffffffffffffffffffffffffffffffffffffff1614155b1515610715576040517f08c379a000000000000000000000000000000000000000000000000000000000815260040180806020018281038252600f8152602001807f696e76616c69642061646472657373000000000000000000000000000000000081525060200191505060405180910390fd5b60008473ffffffffffffffffffffffffffffffffffffffff1684846040518082805190602001908083835b6020831015156107655780518252602082019150602081019050602083039250610740565b6001836020036101000a03801982511681845116808217855250505050505090500191505060006040518083038185875af1925050503d80600081146107c7576040519150601f19603f3d011682016040523d82523d6000602084013e6107cc565b606091505b50809350819250505080151561084a576040517f08c379a00000000000000000000000000000000000000000000000000000000081526004018080602001828103825260128152602001807f7472616e73616374696f6e206661696c6564000000000000000000000000000081525060200191505060405180910390fd5b7f012ae8711b8dc37e405d8e422569d1ee78d52d76bc8fe2a9ea81ffe17569e51a85858585604051808573ffffffffffffffffffffffffffffffffffffffff1673ffffffffffffffffffffffffffffffffffffffff1681526020018481526020018060200180602001838103835285818151815260200191508051906020019080838360005b838110156108eb5780820151818401526020810190506108d0565b50505050905090810190601f1680156109185780820380516001836020036101000a031916815260200191505b50838103825284818151815260200191508051906020019080838360005b83811015610951578082015181840152602081019050610936565b50505050905090810190601f16801561097e5780820380516001836020036101000a031916815260200191505b50965050505050505060405180910390a1509392505050565b6000600160008373ffffffffffffffffffffffffffffffffffffffff1673ffffffffffffffffffffffffffffffffffffffff16815260200190815260200160002060009054906101000a900460ff169050919050565b60008060028111156109fb57fe5b6000808473ffffffffffffffffffffffffffffffffffffffff1673ffffffffffffffffffffffffffffffffffffffff16815260200190815260200160002060009054906101000a900460ff166002811115610a5257fe5b14159050919050565b60008060008373ffffffffffffffffffffffffffffffffffffffff1673ffffffffffffffffffffffffffffffffffffffff16815260200190815260200160002060009054906101000a900460ff169050919050565b60016002811115610abd57fe5b610ac633610a5b565b6002811115610ad157fe5b141515610b46576040517f08c379a00000000000000000000000000000000000000000000000000000000081526004018080602001828103825260178152602001807f6d73672e73656e646572206973206e6f74206f776e657200000000000000000081525060200191505060405180910390fd5b60006002811115610b5357fe5b816002811115610b5f57fe5b14151515610bd5576040517f08c379a000000000000000000000000000000000000000000000000000000000815260040180806020018281038252601a8152602001807f696e76616c69642064657669636520616363657373207479706500000000000081525060200191505060405180910390fd5b600073ffffffffffffffffffffffffffffffffffffffff168273ffffffffffffffffffffffffffffffffffffffff1614151515610c7a576040517f08c379a00000000000000000000000000000000000000000000000000000000081526004018080602001828103825260168152602001807f696e76616c69642064657669636520616464726573730000000000000000000081525060200191505060405180910390fd5b610c83826109ed565b151515610cf8576040517f08c379a00000000000000000000000000000000000000000000000000000000081526004018080602001828103825260158152602001807f64657669636520616c726561647920657869737473000000000000000000000081525060200191505060405180910390fd5b806000808473ffffffffffffffffffffffffffffffffffffffff1673ffffffffffffffffffffffffffffffffffffffff16815260200190815260200160002060006101000a81548160ff02191690836002811115610d5257fe5b021790555060018060008473ffffffffffffffffffffffffffffffffffffffff1673ffffffffffffffffffffffffffffffffffffffff16815260200190815260200160002060006101000a81548160ff0219169083151502179055507ff6ff1d9add58a0f612db0cbbba5dfefcdcf751c874829075c6ad47a52d64b6938282604051808373ffffffffffffffffffffffffffffffffffffffff1673ffffffffffffffffffffffffffffffffffffffff168152602001826002811115610e1357fe5b60ff1681526020019250505060405180910390a1505056fea165627a7a7230582009b996477462cf525747ac1fbe94c76814425a010a08fc48a3d8fe13616a5c830029",
  "source": "pragma solidity ^0.5.0;\n\nimport \"./AbstractAccount.sol\";\n\n\n/**\n * @title Account\n */\ncontract Account is AbstractAccount {\n\n  mapping(address => AccessTypes) internal devicesAccessType;\n  mapping(address => bool) internal devicesLog;\n\n  modifier onlyOwner() {\n    require(\n      getDeviceAccessType(msg.sender) == AccessTypes.OWNER,\n      \"msg.sender is not owner\"\n    );\n\n    _;\n  }\n\n  constructor(address _device) public {\n    if (_device != address(0)) {\n      devicesAccessType[_device] = AccessTypes.OWNER;\n      devicesLog[_device] = true;\n    }\n  }\n\n  function() external payable {\n    //\n  }\n\n  function deviceExists(address _device) public view returns (bool) {\n    return devicesAccessType[_device] != AccessTypes.NONE;\n  }\n\n  function deviceExisted(address _device) public view returns (bool) {\n    return devicesLog[_device];\n  }\n\n  function getDeviceAccessType(address _device) public view returns (AccessTypes) {\n    return devicesAccessType[_device];\n  }\n\n  function addDevice(address _device, AccessTypes _accessType) onlyOwner public {\n    require(\n      _accessType != AccessTypes.NONE,\n      \"invalid device access type\"\n    );\n    require(\n      _device != address(0),\n      \"invalid device address\"\n    );\n    require(\n      !deviceExists(_device),\n      \"device already exists\"\n    );\n\n    devicesAccessType[_device] = _accessType;\n    devicesLog[_device] = true;\n\n    emit DeviceAdded(_device, _accessType);\n  }\n\n  function removeDevice(address _device) onlyOwner public {\n    require(\n      deviceExists(_device),\n      \"device doesn't exists\"\n    );\n\n    delete devicesAccessType[_device];\n\n    emit DeviceRemoved(_device);\n  }\n\n  function executeTransaction(address payable _to, uint256 _value, bytes memory _data) onlyOwner public returns (bytes memory _response) {\n    require(\n      _to != address(0) &&\n      _to != address(this),\n      \"invalid address\"\n    );\n\n    bool _succeeded;\n    (_succeeded, _response) = _to.call.value(_value)(_data);\n\n    require(\n      _succeeded,\n      \"transaction failed\"\n    );\n\n    emit TransactionExecuted(_to, _value, _data, _response);\n  }\n}\n",
  "sourcePath": "/Users/mfcalvanese/dev/eth/crypto-flash/contracts/account/Account.sol",
  "compiler": {
    "name": "solc",
    "version": "0.5.0+commit.1d4f565a.Emscripten.clang"
  },
  "schemaVersion": "3.0.2",
  "updatedAt": "2019-02-17T09:09:20.443Z",
  "devdoc": {
    "methods": {},
    "title": "Account"
  },
  "userdoc": {
    "methods": {}
  }
}